{
  "_format": "hh-sol-artifact-1",
  "contractName": "LOR",
  "sourceName": "contracts/LOR.sol",
  "abi": [
    {
      "inputs": [],
      "stateMutability": "nonpayable",
      "type": "constructor"
    },
    {
      "anonymous": false,
      "inputs": [
        {
          "indexed": true,
          "internalType": "uint256",
          "name": "id",
          "type": "uint256"
        }
      ],
      "name": "RecommendationApproved",
      "type": "event"
    },
    {
      "anonymous": false,
      "inputs": [
        {
          "indexed": true,
          "internalType": "uint256",
          "name": "id",
          "type": "uint256"
        }
      ],
      "name": "RecommendationRequested",
      "type": "event"
    },
    {
      "anonymous": false,
      "inputs": [
        {
          "indexed": true,
          "internalType": "uint256",
          "name": "id",
          "type": "uint256"
        },
        {
          "indexed": false,
          "internalType": "string",
          "name": "name",
          "type": "string"
        },
        {
          "indexed": false,
          "internalType": "string",
          "name": "course",
          "type": "string"
        },
        {
          "indexed": false,
          "internalType": "string",
          "name": "email",
          "type": "string"
        }
      ],
      "name": "StudentAdded",
      "type": "event"
    },
    {
      "inputs": [
        {
          "internalType": "address",
          "name": "_approver",
          "type": "address"
        }
      ],
      "name": "addApprover",
      "outputs": [],
      "stateMutability": "nonpayable",
      "type": "function"
    },
    {
      "inputs": [
        {
          "internalType": "string",
          "name": "_name",
          "type": "string"
        },
        {
          "internalType": "string",
          "name": "_course",
          "type": "string"
        },
        {
          "internalType": "string",
          "name": "_email",
          "type": "string"
        }
      ],
      "name": "addStudent",
      "outputs": [
        {
          "internalType": "uint256",
          "name": "",
          "type": "uint256"
        }
      ],
      "stateMutability": "nonpayable",
      "type": "function"
    },
    {
      "inputs": [
        {
          "internalType": "uint256",
          "name": "_id",
          "type": "uint256"
        }
      ],
      "name": "approveRecommendation",
      "outputs": [],
      "stateMutability": "nonpayable",
      "type": "function"
    },
    {
      "inputs": [
        {
          "internalType": "address",
          "name": "",
          "type": "address"
        }
      ],
      "name": "approversList",
      "outputs": [
        {
          "internalType": "bool",
          "name": "",
          "type": "bool"
        }
      ],
      "stateMutability": "view",
      "type": "function"
    },
    {
      "inputs": [
        {
          "internalType": "uint256",
          "name": "_id",
          "type": "uint256"
        }
      ],
      "name": "getStudent",
      "outputs": [
        {
          "internalType": "string",
          "name": "",
          "type": "string"
        },
        {
          "internalType": "string",
          "name": "",
          "type": "string"
        },
        {
          "internalType": "string",
          "name": "",
          "type": "string"
        },
        {
          "internalType": "string",
          "name": "",
          "type": "string"
        }
      ],
      "stateMutability": "view",
      "type": "function"
    },
    {
      "inputs": [],
      "name": "owner",
      "outputs": [
        {
          "internalType": "address",
          "name": "",
          "type": "address"
        }
      ],
      "stateMutability": "view",
      "type": "function"
    },
    {
      "inputs": [
        {
          "internalType": "address",
          "name": "_approver",
          "type": "address"
        }
      ],
      "name": "removeApprover",
      "outputs": [],
      "stateMutability": "nonpayable",
      "type": "function"
    },
    {
      "inputs": [
        {
          "internalType": "uint256",
          "name": "_id",
          "type": "uint256"
        }
      ],
      "name": "requestRecommendation",
      "outputs": [],
      "stateMutability": "nonpayable",
      "type": "function"
    },
    {
      "inputs": [],
      "name": "studentCount",
      "outputs": [
        {
          "internalType": "uint256",
          "name": "",
          "type": "uint256"
        }
      ],
      "stateMutability": "view",
      "type": "function"
    }
  ],
  "bytecode": "0x6080604052348015600f57600080fd5b50336000806101000a81548173ffffffffffffffffffffffffffffffffffffffff021916908373ffffffffffffffffffffffffffffffffffffffff1602179055506119498061005f6000396000f3fe608060405234801561001057600080fd5b50600436106100935760003560e01c8063aa518b9011610066578063aa518b9014610121578063b646c19414610151578063b84ec96a1461016d578063e581f9ee14610189578063fe0ef2e3146101a757610093565b80634bb5531014610098578063642f9163146100b45780636cf4c88f146100e75780638da5cb5b14610103575b600080fd5b6100b260048036038101906100ad9190610d88565b6101d7565b005b6100ce60048036038101906100c99190610d88565b610429565b6040516100de9493929190610e45565b60405180910390f35b61010160048036038101906100fc9190610f04565b6107b7565b005b61010b610923565b6040516101189190610f40565b60405180910390f35b61013b60048036038101906101369190611090565b610947565b6040516101489190611146565b60405180910390f35b61016b60048036038101906101669190610f04565b610a66565b005b61018760048036038101906101829190610d88565b610bdc565b005b610191610d18565b60405161019e9190611146565b60405180910390f35b6101c160048036038101906101bc9190610f04565b610d1e565b6040516101ce919061117c565b60405180910390f35b600360003373ffffffffffffffffffffffffffffffffffffffff1673ffffffffffffffffffffffffffffffffffffffff16815260200190815260200160002060009054906101000a900460ff16610263576040517f08c379a000000000000000000000000000000000000000000000000000000000815260040161025a90611209565b60405180910390fd5b60025481106102a7576040517f08c379a000000000000000000000000000000000000000000000000000000000815260040161029e90611275565b60405180910390fd5b6002808111156102ba576102b9611295565b5b6001600083815260200190815260200160002060030160009054906101000a900460ff1660028111156102f0576102ef611295565b5b03610330576040517f08c379a000000000000000000000000000000000000000000000000000000000815260040161032790611310565b60405180910390fd5b6001600281111561034457610343611295565b5b6001600083815260200190815260200160002060030160009054906101000a900460ff16600281111561037a57610379611295565b5b146103ba576040517f08c379a00000000000000000000000000000000000000000000000000000000081526004016103b19061137c565b60405180910390fd5b60026001600083815260200190815260200160002060030160006101000a81548160ff021916908360028111156103f4576103f3611295565b5b0217905550807f9f5c2fd4b3b6e7849e23603b43af726a1d08141e2b852cec6af4dd38a8c7457c60405160405180910390a250565b6060806060806002548510610473576040517f08c379a000000000000000000000000000000000000000000000000000000000815260040161046a90611275565b60405180910390fd5b6000600160008781526020019081526020016000206040518060800160405290816000820180546104a3906113cb565b80601f01602080910402602001604051908101604052809291908181526020018280546104cf906113cb565b801561051c5780601f106104f15761010080835404028352916020019161051c565b820191906000526020600020905b8154815290600101906020018083116104ff57829003601f168201915b50505050508152602001600182018054610535906113cb565b80601f0160208091040260200160405190810160405280929190818152602001828054610561906113cb565b80156105ae5780601f10610583576101008083540402835291602001916105ae565b820191906000526020600020905b81548152906001019060200180831161059157829003601f168201915b505050505081526020016002820180546105c7906113cb565b80601f01602080910402602001604051908101604052809291908181526020018280546105f3906113cb565b80156106405780601f1061061557610100808354040283529160200191610640565b820191906000526020600020905b81548152906001019060200180831161062357829003601f168201915b505050505081526020016003820160009054906101000a900460ff16600281111561066e5761066d611295565b5b60028111156106805761067f611295565b5b81525050905060006040518060400160405280600481526020017f4e6f6e65000000000000000000000000000000000000000000000000000000008152509050600160028111156106d4576106d3611295565b5b826060015160028111156106eb576106ea611295565b5b0361072d576040518060400160405280600981526020017f52657175657374656400000000000000000000000000000000000000000000008152509050610796565b6002808111156107405761073f611295565b5b8260600151600281111561075757610756611295565b5b03610795576040518060400160405280600881526020017f417070726f76656400000000000000000000000000000000000000000000000081525090505b5b81600001518260200151836040015183955095509550955050509193509193565b60008054906101000a900473ffffffffffffffffffffffffffffffffffffffff1673ffffffffffffffffffffffffffffffffffffffff163373ffffffffffffffffffffffffffffffffffffffff1614610845576040517f08c379a000000000000000000000000000000000000000000000000000000000815260040161083c9061146e565b60405180910390fd5b600360008273ffffffffffffffffffffffffffffffffffffffff1673ffffffffffffffffffffffffffffffffffffffff16815260200190815260200160002060009054906101000a900460ff166108d1576040517f08c379a00000000000000000000000000000000000000000000000000000000081526004016108c8906114da565b60405180910390fd5b600360008273ffffffffffffffffffffffffffffffffffffffff1673ffffffffffffffffffffffffffffffffffffffff16815260200190815260200160002060006101000a81549060ff021916905550565b60008054906101000a900473ffffffffffffffffffffffffffffffffffffffff1681565b6000806002600081548092919061095d90611529565b91905055905060405180608001604052808681526020018581526020018481526020016000600281111561099457610993611295565b5b8152506001600083815260200190815260200160002060008201518160000190816109bf919061171d565b5060208201518160010190816109d5919061171d565b5060408201518160020190816109eb919061171d565b5060608201518160030160006101000a81548160ff02191690836002811115610a1757610a16611295565b5b0217905550905050807f2d8a76f836e03f0b37d3ed270ed142d2db9fc41647972b592d9f9b9e28434681868686604051610a53939291906117ef565b60405180910390a2809150509392505050565b60008054906101000a900473ffffffffffffffffffffffffffffffffffffffff1673ffffffffffffffffffffffffffffffffffffffff163373ffffffffffffffffffffffffffffffffffffffff1614610af4576040517f08c379a0000000000000000000000000000000000000000000000000000000008152600401610aeb9061146e565b60405180910390fd5b600360008273ffffffffffffffffffffffffffffffffffffffff1673ffffffffffffffffffffffffffffffffffffffff16815260200190815260200160002060009054906101000a900460ff1615610b81576040517f08c379a0000000000000000000000000000000000000000000000000000000008152600401610b7890611887565b60405180910390fd5b6001600360008373ffffffffffffffffffffffffffffffffffffffff1673ffffffffffffffffffffffffffffffffffffffff16815260200190815260200160002060006101000a81548160ff02191690831515021790555050565b6002548110610c20576040517f08c379a0000000000000000000000000000000000000000000000000000000008152600401610c1790611275565b60405180910390fd5b60006002811115610c3457610c33611295565b5b6001600083815260200190815260200160002060030160009054906101000a900460ff166002811115610c6a57610c69611295565b5b14610caa576040517f08c379a0000000000000000000000000000000000000000000000000000000008152600401610ca1906118f3565b60405180910390fd5b600180600083815260200190815260200160002060030160006101000a81548160ff02191690836002811115610ce357610ce2611295565b5b0217905550807f242142fba059af0c863865fb86c0dbb03ee5c6f8e7ab87e35b00d264adfa918060405160405180910390a250565b60025481565b60036020528060005260406000206000915054906101000a900460ff1681565b6000604051905090565b600080fd5b600080fd5b6000819050919050565b610d6581610d52565b8114610d7057600080fd5b50565b600081359050610d8281610d5c565b92915050565b600060208284031215610d9e57610d9d610d48565b5b6000610dac84828501610d73565b91505092915050565b600081519050919050565b600082825260208201905092915050565b60005b83811015610def578082015181840152602081019050610dd4565b60008484015250505050565b6000601f19601f8301169050919050565b6000610e1782610db5565b610e218185610dc0565b9350610e31818560208601610dd1565b610e3a81610dfb565b840191505092915050565b60006080820190508181036000830152610e5f8187610e0c565b90508181036020830152610e738186610e0c565b90508181036040830152610e878185610e0c565b90508181036060830152610e9b8184610e0c565b905095945050505050565b600073ffffffffffffffffffffffffffffffffffffffff82169050919050565b6000610ed182610ea6565b9050919050565b610ee181610ec6565b8114610eec57600080fd5b50565b600081359050610efe81610ed8565b92915050565b600060208284031215610f1a57610f19610d48565b5b6000610f2884828501610eef565b91505092915050565b610f3a81610ec6565b82525050565b6000602082019050610f556000830184610f31565b92915050565b600080fd5b600080fd5b7f4e487b7100000000000000000000000000000000000000000000000000000000600052604160045260246000fd5b610f9d82610dfb565b810181811067ffffffffffffffff82111715610fbc57610fbb610f65565b5b80604052505050565b6000610fcf610d3e565b9050610fdb8282610f94565b919050565b600067ffffffffffffffff821115610ffb57610ffa610f65565b5b61100482610dfb565b9050602081019050919050565b82818337600083830152505050565b600061103361102e84610fe0565b610fc5565b90508281526020810184848401111561104f5761104e610f60565b5b61105a848285611011565b509392505050565b600082601f83011261107757611076610f5b565b5b8135611087848260208601611020565b91505092915050565b6000806000606084860312156110a9576110a8610d48565b5b600084013567ffffffffffffffff8111156110c7576110c6610d4d565b5b6110d386828701611062565b935050602084013567ffffffffffffffff8111156110f4576110f3610d4d565b5b61110086828701611062565b925050604084013567ffffffffffffffff81111561112157611120610d4d565b5b61112d86828701611062565b9150509250925092565b61114081610d52565b82525050565b600060208201905061115b6000830184611137565b92915050565b60008115159050919050565b61117681611161565b82525050565b6000602082019050611191600083018461116d565b92915050565b7f4f6e6c7920617070726f766572732063616e20617070726f7665207265636f6d60008201527f6d656e646174696f6e7300000000000000000000000000000000000000000000602082015250565b60006111f3602a83610dc0565b91506111fe82611197565b604082019050919050565b60006020820190508181036000830152611222816111e6565b9050919050565b7f53747564656e7420646f65736e27742065786973740000000000000000000000600082015250565b600061125f601583610dc0565b915061126a82611229565b602082019050919050565b6000602082019050818103600083015261128e81611252565b9050919050565b7f4e487b7100000000000000000000000000000000000000000000000000000000600052602160045260246000fd5b7f5265636f6d6d656e646174696f6e20616c726561647920617070726f76656400600082015250565b60006112fa601f83610dc0565b9150611305826112c4565b602082019050919050565b60006020820190508181036000830152611329816112ed565b9050919050565b7f5265636f6d6d656e646174696f6e206e6f742072657175657374656400000000600082015250565b6000611366601c83610dc0565b915061137182611330565b602082019050919050565b6000602082019050818103600083015261139581611359565b9050919050565b7f4e487b7100000000000000000000000000000000000000000000000000000000600052602260045260246000fd5b600060028204905060018216806113e357607f821691505b6020821081036113f6576113f561139c565b5b50919050565b7f4f6e6c79206f776e65722063616e2061636365737320746869732066756e637460008201527f696f6e0000000000000000000000000000000000000000000000000000000000602082015250565b6000611458602383610dc0565b9150611463826113fc565b604082019050919050565b600060208201905081810360008301526114878161144b565b9050919050565b7f417070726f76657220646f65736e277420657869737400000000000000000000600082015250565b60006114c4601683610dc0565b91506114cf8261148e565b602082019050919050565b600060208201905081810360008301526114f3816114b7565b9050919050565b7f4e487b7100000000000000000000000000000000000000000000000000000000600052601160045260246000fd5b600061153482610d52565b91507fffffffffffffffffffffffffffffffffffffffffffffffffffffffffffffffff8203611566576115656114fa565b5b600182019050919050565b60008190508160005260206000209050919050565b60006020601f8301049050919050565b600082821b905092915050565b6000600883026115d37fffffffffffffffffffffffffffffffffffffffffffffffffffffffffffffffff82611596565b6115dd8683611596565b95508019841693508086168417925050509392505050565b6000819050919050565b600061161a61161561161084610d52565b6115f5565b610d52565b9050919050565b6000819050919050565b611634836115ff565b61164861164082611621565b8484546115a3565b825550505050565b600090565b61165d611650565b61166881848461162b565b505050565b5b8181101561168c57611681600082611655565b60018101905061166e565b5050565b601f8211156116d1576116a281611571565b6116ab84611586565b810160208510156116ba578190505b6116ce6116c685611586565b83018261166d565b50505b505050565b600082821c905092915050565b60006116f4600019846008026116d6565b1980831691505092915050565b600061170d83836116e3565b9150826002028217905092915050565b61172682610db5565b67ffffffffffffffff81111561173f5761173e610f65565b5b61174982546113cb565b611754828285611690565b600060209050601f8311600181146117875760008415611775578287015190505b61177f8582611701565b8655506117e7565b601f19841661179586611571565b60005b828110156117bd57848901518255600182019150602085019450602081019050611798565b868310156117da57848901516117d6601f8916826116e3565b8355505b6001600288020188555050505b505050505050565b600060608201905081810360008301526118098186610e0c565b9050818103602083015261181d8185610e0c565b905081810360408301526118318184610e0c565b9050949350505050565b7f417070726f76657220616c726561647920657869737473000000000000000000600082015250565b6000611871601783610dc0565b915061187c8261183b565b602082019050919050565b600060208201905081810360008301526118a081611864565b9050919050565b7f416c726561647920726571756573746564206f7220617070726f766564000000600082015250565b60006118dd601d83610dc0565b91506118e8826118a7565b602082019050919050565b6000602082019050818103600083015261190c816118d0565b905091905056fea264697066735822122017dabc3720bae64f247a0697eabdd6e30f2290a5ed00fd6435bb2819f54bcefb64736f6c634300081c0033",
  "linkReferences": {},
  "deployedLinkReferences": {}
}